:020000040000fa
:080000000002040000000000f2
:020000040000fa
:0400080006030000eb
:020000040000fa
:04000c0048030000a5
:020000040000fa
:040010008803000061
:020000040000fa
:0400140026030000bf
:020000040000fa
:040018006803000079
:020000040000fa
:04001c0018040000c4
:020000040000fa
:04002000a803000031
:020000040000fa
:0400240018040000bc
:020000040000fa
:0400280018040000b8
:020000040000fa
:04002c00e2030000eb
:020000040000fa
:0400300018040000b0
:020000040000fa
:0400340018040000ac
:020000040000fa
:0400380018040000a8
:020000040000fa
:04003c0018040000a4
:020000040000fa
:0400400018040000a0
:020000040000fa
:04004400180400009c
:020000040000fa
:040048001804000098
:020000040000fa
:04004c001804000094
:020000040000fa
:040050001804000090
:020000040000fa
:04005400180400008c
:020000040000fa
:040058001804000088
:020000040000fa
:04005c001804000084
:020000040000fa
:040060001804000080
:020000040000fa
:04006400180400007c
:020000040000fa
:040068001804000078
:020000040000fa
:04006c001804000074
:020000040000fa
:040070001804000070
:020000040000fa
:04007400180400006c
:020000040000fa
:040078001804000068
:020000040000fa
:04007c001804000064
:020000040000fa
:040080001804000060
:020000040000fa
:04008400180400005c
:020000040000fa
:040088001804000058
:020000040000fa
:04008c001804000054
:020000040000fa
:040090001804000050
:020000040000fa
:04009400180400004c
:020000040000fa
:040098001804000048
:020000040000fa
:04009c001804000044
:020000040000fa
:0400a0001804000040
:020000040000fa
:0400a400180400003c
:020000040000fa
:0400a8001804000038
:020000040000fa
:0400ac001804000034
:020000040000fa
:0400b0001804000030
:020000040000fa
:0400b400180400002c
:020000040000fa
:0400b8001804000028
:020000040000fa
:0400bc001804000024
:020000040000fa
:0400c0001804000020
:020000040000fa
:0400c400180400001c
:020000040000fa
:0400c8001804000018
:020000040000fa
:0400cc001804000014
:020000040000fa
:0400d0001804000010
:020000040000fa
:0400d400180400000c
:020000040000fa
:0400d8001804000008
:020000040000fa
:0400dc001804000004
:020000040000fa
:0400e0001804000000
:020000040000fa
:0400e40018040000fc
:020000040000fa
:0400e80018040000f8
:020000040000fa
:0400ec0018040000f4
:020000040000fa
:0400f00018040000f0
:020000040000fa
:0400f40018040000ec
:020000040000fa
:0400f80018040000e8
:020000040000fa
:0400fc0018040000e4
:020000040000fa
:0401000018040000df
:020000040000fa
:0401040018040000db
:020000040000fa
:0401080018040000d7
:020000040000fa
:04010c0018040000d3
:020000040000fa
:0401100018040000cf
:020000040000fa
:0401140018040000cb
:020000040000fa
:0401180018040000c7
:020000040000fa
:04011c0018040000c3
:020000040000fa
:0401200018040000bf
:020000040000fa
:0401240018040000bb
:020000040000fa
:0401280018040000b7
:020000040000fa
:04012c0018040000b3
:020000040000fa
:0401300018040000af
:020000040000fa
:0401340018040000ab
:020000040000fa
:0401380018040000a7
:020000040000fa
:04013c0018040000a3
:020000040000fa
:04014000180400009f
:020000040000fa
:04014400180400009b
:020000040000fa
:040148001804000097
:020000040000fa
:04014c001804000093
:020000040000fa
:04015000180400008f
:020000040000fa
:04015400180400008b
:020000040000fa
:040158001804000087
:020000040000fa
:04015c001804000083
:020000040000fa
:04016000180400007f
:020000040000fa
:04016400180400007b
:020000040000fa
:040168001804000077
:020000040000fa
:04016c001804000073
:020000040000fa
:04017000180400006f
:020000040000fa
:04017400180400006b
:020000040000fa
:040178001804000067
:020000040000fa
:04017c001804000063
:020000040000fa
:04018000180400005f
:020000040000fa
:04018400180400005b
:020000040000fa
:040188001804000057
:020000040000fa
:04018c001804000053
:020000040000fa
:04019000180400004f
:020000040000fa
:04019400180400004b
:020000040000fa
:040198001804000047
:020000040000fa
:04019c001804000043
:020000040000fa
:0401a000180400003f
:020000040000fa
:0401a400180400003b
:020000040000fa
:0401a8001804000037
:020000040000fa
:0401ac001804000033
:020000040000fa
:0401b000180400002f
:020000040000fa
:0401b400180400002b
:020000040000fa
:0401b8001804000027
:020000040000fa
:0401bc001804000023
:020000040000fa
:0401c000180400001f
:020000040000fa
:0401c400180400001b
:020000040000fa
:0401c8001804000017
:020000040000fa
:0401cc001804000013
:020000040000fa
:0401d000180400000f
:020000040000fa
:0401d400180400000b
:020000040000fa
:0401d8001804000007
:020000040000fa
:0401dc001804000003
:020000040000fa
:0401e00018040000ff
:020000040000fa
:0401e40018040000fb
:020000040000fa
:0401e80018040000f7
:020000040000fa
:0401ec0018040000f3
:020000040000fa
:0401f00018040000ef
:020000040000fa
:0401f40018040000eb
:020000040000fa
:0401f80018040000e7
:020000040000fa
:0401fc0018040000e3
:020000040000fa
:0402000018040000de
:020000040000fa
:0402040018040000da
:020000040000fa
:0402080018040000d6
:020000040000fa
:04020c0018040000d2
:020000040000fa
:0402100018040000ce
:020000040000fa
:0402140018040000ca
:020000040000fa
:0402180018040000c6
:020000040000fa
:04021c0018040000c2
:020000040000fa
:0402200018040000be
:020000040000fa
:0402240018040000ba
:020000040000fa
:0402280018040000b6
:020000040000fa
:04022c0018040000b2
:020000040000fa
:0402300018040000ae
:020000040000fa
:0402340018040000aa
:020000040000fa
:0402380018040000a6
:020000040000fa
:04023c0018040000a2
:020000040000fa
:04024000180400009e
:020000040000fa
:04024400180400009a
:020000040000fa
:040248001804000096
:020000040000fa
:04024c001804000092
:020000040000fa
:04025000180400008e
:020000040000fa
:04025400180400008a
:020000040000fa
:040258001804000086
:020000040000fa
:04025c001804000082
:020000040000fa
:04026000180400007e
:020000040000fa
:04026400180400007a
:020000040000fa
:040268001804000076
:020000040000fa
:04026c001804000072
:020000040000fa
:04027000180400006e
:020000040000fa
:04027400180400006a
:020000040000fa
:040278001804000066
:020000040000fa
:04027c001804000062
:020000040000fa
:04028000180400005e
:020000040000fa
:04028400180400005a
:020000040000fa
:040288001804000056
:020000040000fa
:04028c001804000052
:020000040000fa
:04029000180400004e
:020000040000fa
:04029400180400004a
:020000040000fa
:040298001804000046
:020000040000fa
:04029c001804000042
:020000040000fa
:0402a000180400003e
:020000040000fa
:0402a400180400003a
:020000040000fa
:0402a8001804000036
:020000040000fa
:0402ac001804000032
:020000040000fa
:0402b000180400002e
:020000040000fa
:0402b400180400002a
:020000040000fa
:0402b8001804000026
:020000040000fa
:0402bc001804000022
:020000040000fa
:0402c000180400001e
:020000040000fa
:0402c400180400001a
:020000040000fa
:0402c8001804000016
:020000040000fa
:0402cc001804000012
:020000040000fa
:0402d000180400000e
:020000040000fa
:0402d400180400000a
:020000040000fa
:0402d8001804000006
:020000040000fa
:0402dc001804000002
:020000040000fa
:0402e00018040000fe
:020000040000fa
:0402e40018040000fa
:020000040000fa
:0402e80018040000f6
:020000040000fa
:0402ec0018040000f2
:020000040000fa
:0402f00018040000ee
:020000040000fa
:0402f40018040000ea
:020000040000fa
:0402f80018040000e6
:020000040000fa
:0402fc0018040000e2
:020000040000fa
:0403000018040000dd
:020000040000fa
:0403040018040000d9
:020000040000fa
:0403080018040000d5
:020000040000fa
:04030c0018040000d1
:020000040000fa
:0403100018040000cd
:020000040000fa
:0403140018040000c9
:020000040000fa
:0403180018040000c5
:020000040000fa
:04031c0018040000c1
:020000040000fa
:0403200018040000bd
:020000040000fa
:0403240018040000b9
:020000040000fa
:0403280018040000b5
:020000040000fa
:04032c0018040000b1
:020000040000fa
:0403300018040000ad
:020000040000fa
:0403340018040000a9
:020000040000fa
:10040000af0221000eff26000e0188000000000050
:10041000000020000000e000020032000001200087
:100420002002880014000700030107000000e0001c
:1004300003003a0080842000010020000200370001
:100440000000200001002000810f70000100320038
:100450000f000700000020000000e0000200320052
:10046000000002000000000068050200000000001b
:100470000040da000000fe00200020000000e00044
:1004800002003200100020009001880000000600e9
:10049000a1028800800478000000eb001f003700f4
:1004a000e284440054a0b4009905ba00e2844400f8
:1004b00054a0b4009906ba00e284440054a0b400e9
:1004c0000006eb00476fde00fd07b200ae018800ba
:1004d000636ce10003003a000ad801000000eb0061
:1004e0000e003700606ce10008003a00004deb00a0
:1004f0000a05e800020039003420ec000af0a000f0
:100500008b05e900f9ff3e00040037006168e10057
:10051000010032000086eb000b00070019c7ba008b
:100520001905ba000e04e00003003a000a00e000da
:10053000dbff3a0000000600fe07b200ae028800b2
:100540008a047800f5ff37000cd0a300e20f4d00bd
:100550001c003b0089027800354dba000a05e8000e
:10056000020039003420ec000af0a0008b05e900fd
:100570000f003200254dba000a05e80002003900dc
:100580003420ec000af0a0008b05e90008003200de
:100590000c00e0000600320015cdba000a05e800a4
:1005a000020039003420ec000af0a0008b05e900bd
:1005b0008984e80054a0b4000b00e000e2ff3a0098
:1005c000000006009902ba00055d78008b05e9007d
:1005d000f7ff3200c82ade00055d78008b05e900d0
:1005e000f3ff32000c00e000f1ff320019ddba0029
:1005f000eeff3700b80604000000000058060400b3
:100600000000000032050400000000003600f80081
:10061000809fbe00829fbe00849fbe00869fbe005a
:100620000000fa00c028a9000000eb00a9020700a2
:100630000080fa004f03be004f02be004f01be0013
:100640004f00be003600f900004006003600f800fa
:10065000809fbe00829fbe00849fbe00869fbe001a
:100660000000fa00a0020700c048a9001000200006
:10067000980207000080fa004f03be004f02be0040
:100680004f01be004f00be003600f90000400600da
:100690003600f800809fbe00829fbe00849fbe008f
:1006a000869fbe000000fa00c068a900200020005c
:1006b000880207000080fa004f03be004f02be0010
:1006c0004f01be004f00be003600f900004006009a
:1006d0003600f800809fbe00829fbe00849fbe004f
:1006e000869fbe000000fa00c088a90030002000ec
:1006f000780207000080fa004f03be004f02be00e0
:100700004f01be004f00be003600f9000040060059
:100710003600f800809fbe00829fbe00849fbe000e
:10072000869fbe000000fa00c608a90070002000e5
:10073000680207000080fa004f03be004f02be00af
:100740004f01be004f00be003600f9000040060019
:100750003600f800809fbe00829fbe00849fbe00ce
:10076000869fbe000000fa00214680000010200095
:10077000008060000000e00003003200c508a9000e
:10078000c000200053020700204680007000600077
:100790000000e00003003200c488a900a00020008f
:1007a0004c02070020468000610060000000e0006d
:1007b00003003200c408a900b00020004502070071
:1007c000ffff37003600f800809fbe00829fbe000a
:1007d000849fbe00869fbe000000fa00308080002b
:1007e0000000e000020032003080800000000100c4
:1007f00090022100104078008040e8009002210023
:10080000014878008002210011c0b300014878003f
:100810000028a9000080fa004f03be004f02be006e
:100820004f01be004f00be003600f9000040060038
:0c0830000040da000000fe00000005009f
:020000040000fa
:10083c000000fa00007c80000080fa000000060036
:10084c000200fa00faff0700000f78001e00780083
:10085c00240007000004e000020032000000280021
:10086c00710007001e0078002a0007000004e00059
:10087c0002003200000024006b0007001e0078000c
:10088c00320007000004e0000200320000202000cb
:10089c00650007001e0078003a0007000004e00025
:1008ac0002003200000820005f0007001e007800e4
:1008bc00420007000004e0000200320000042000a7
:1008cc00590007001e0078004a0007000004e000f1
:1008dc000200320000012000530007000080fa00e3
:1008ec00000006000400fa00100798000040eb001e
:1008fc00004f78001e0090000000e00002003d0058
:10090c0010c0b300004f78001e4078000080fa0041
:10091c00000006000400fa00100798000040eb00ed
:10092c00004f78009e0090000000240000806000c2
:10093c000000e0000200320010c0b300004f78004d
:10094c001e4078000080fa00000006000400fa0047
:10095c00100798000040eb00004f78009e009000bc
:10096c0000202000008060000000e0000200320047
:10097c0010c0b300004f78001e4078000080fa00d1
:10098c00000006000400fa00100798000040eb007d
:10099c00004f78009e00900000082000008060004e
:1009ac000000e0000200320010c0b300004f7800dd
:1009bc001e4078000080fa00000006000400fa00d7
:1009cc00100798000040eb00004f78009e0090004c
:1009dc0000042000008060000000e00002003200f3
:1009ec0010c0b300004f78001e4078000080fa0061
:1009fc00000006000400fa00100798000040eb000d
:100a0c00004f78001e009000700060000000e000b5
:100a1c000200320010c0b300004f78001e40780076
:100a2c000080fa00000006000200fa00000f7800b7
:100a3c009e80ea00007c800000806000007c8800c2
:100a4c000080fa00000006000000fa00802fef0082
:100a5c000080fa00000006000000fa00b07380006d
:100a6c0066800a00000000000004a20061406000e3
:100a7c000080fb00610060004600dd00b173800067
:100a8c000160a10001007000b0738800b073800099
:100a9c0055800a00000000000004a20061406000c4
:100aac000080fb00610060004500dd00b173800038
:100abc000150a10001007000b07388000080fa00a2
:100acc00000006001400fa00640107002053200007
:100adc0077000700b000070010c0b300004f78008b
:100aec0010c0b300204f980076cea80076aea900b7
:100afc000300370000000000010037000000000078
:100b0c00a173800000082000008060000000e0005d
:100b1c0008003a00823e2000030020000e007800fe
:100b2c00a40007000004e0000900320077eea800e2
:100b3c0007003700823e2000030020000e007800e2
:100b4c009c0007000004e0000100320077eea900d1
:100b5c00a173800000102000008060000000e00005
:100b6c0008003a00823e2000030020000e007800ae
:100b7c00900007000004e0000900320077cea800c6
:100b8c0007003700823e2000030020000e00780092
:100b9c00880007000004e0000100320077cea900b5
:100bac00a173800000202000008060000000e000a5
:100bbc0008003a00823e2000030020000e0078005e
:100bcc007c0007000004e000caff320077aea800ea
:100bdc00cbff3700823e2000030020000e0078007f
:100bec00740007000004e000c4ff320077aea900d7
:100bfc00c3ff37000000fa000421ef000080eb0077
:100c0c0040088800202328000008880030808000dd
:100c1c000000e00002003a0080652000240007007c
:100c2c000028a9002028a800800221008040eb00a9
:100c3c00014878000080fa00000006000200fa006b
:100c4c00000f78009e007800410888008002210087
:100c5c008040eb00014878000080fa00000006009c
:100c6c000000fa00400880000080fa000000060036
:100c7c000200fa00000f78009e007800210888001e
:100c8c00800221008040eb00014878000080fa00cf
:100c9c00000006000000fa00200880000080fa0026
:100cac00000006000000fa000080fa0000000600b8
:100cbc000200fa00000f78002028a9009e0078009e
:100ccc00318088002028a8000080fa00000006006f
:100cdc000000fa00800221008040eb0001487800ff
:100cec002028a80001e1a8000080fa0000000600fe
:100cfc000000fa0001e1a9002028a9000080fa00f8
:100d0c00000006000200fa0080022100104f78005b
:100d1c001e4078000004e000030032008002210035
:100d2c008040eb00014878001e4078000080fa00fb
:100d3c00000006000000fa0090022100104078002c
:100d4c000080fb000080fa00000006000000fa00a2
:100d5c00900221008040eb00014878000080fa00ee
:100d6c00000006000000fa000000eb00c0ff0700c6
:100d7c000280800013808000000020001100200001
:100d8c0002004000838048000080880011808800a9
:100d9c000080fa00000006000000fa000030ef00ae
:100dac000230ef00806b2000c1ff07000080fa00ca
:100dbc00000006000600fa00000f780012079800e9
:100dcc00230798001e007800104078000004e00013
:100ddc0019003200afff07006101b80000808000ed
:100dec001180800002004000838048001e017800c2
:100dfc0010019800210198002e009000ff01b9000d
:100e0c001e009000e000b900000141009e0090001f
:100e1c00f00120000008b8000101410082007800b8
:100e2c001e01780030019800410198001e007800e6
:100e3c008040eb000148780096ff07006101b80084
:100e4c0000808000118080000201400083814800f6
:100e5c001e007800a00090001000900000015100ce
:100e6c00818159001e007800c00090003000900075
:100e7c00800f5100818f5900030039001e0078004b
:100e8c0011c0b300014878001e00780010407800b3
:100e9c000080fa00000006000000fa001000230099
:100eac00307c880060092000407c88008c2fef008b
:100ebc0010042000507c880010102000707c8800ea
:100ecc0060092000807c880010042000907c880041
:100edc009a2fef00b82fef00ba2fef00be2fef00c4
:100eec00002def00a02fef00a42fef00a62fef0096
:100efc00a82fef00aa2fef00ae2fef00b02fef00be
:100f0c00b22fef007200200080072000a109200002
:100f1c0053f8200080497800814978008249780094
:100f2c000001eb00600420007105200043f8200054
:100f3c008049780081497800824978000080fa0065
:100f4c00000006000000fa00707c8000ee800a00b1
:100f5c00000000000080fb0000f0a7000000ea0089
:100f6c000000ea004f00de00004078000080fa002c
:100f7c00000006000000fa00062eef00222eef0003
:100f8c003e2eef005a2eef00762eef00f0012000df
:100f9c0010708800d0ff2f00f07088000080eb00ec
:100fac00d07188000080eb00b0728800f0f921004d
:100fbc00907388000c2eef00282eef00442eef00cb
:100fcc00602eef007c2eef000a2eef00262eef0095
:100fdc00422eef005e2eef007a2eef00082eef006f
:100fec00242eef00402eef005c2eef00782eef0049
:100ffc00f001200000708800d0092000e07088000b
:10100c00f00c2000c071880000c02200a072880083
:10101c00f0002000807388000080fa0000000600b9
:10102c000200fa00000f780021028000200f20003f
:10103c00008060001e007000200288000080fa0012
:10104c00000006000000fa00c3e8a8000000000041
:10105c00000000000080fa00000006000000fa000a
:10106c00c4ff0700240007008bff0700e1fe070008
:10107c00f4ff070000022000e9ff07000080fa00df
:04108c00000006005a
:020000040000fa
:1010900000100000040000008000000008100000a4
:1010a000200000008000000004100000020000008a
:1010b00082000000ffff0000281000000200000076
:1010c0008000000006100000020000008000000008
:0410d000000000001c
:020000040000fa
:1010d4000200fa00000f78009e007800218088004a
:1010e400ffff37000000fa0080002100800778002d
:1010f40000022100000188000080fa0000000600c0
:101104000000fa0001428000f0f82f000080600027
:101114000040a000004288000080fa0000000600a1
:020000040000fa
:020000040005f5
:047e0000ffffff0081
:020000040000fa
:020000040005f5
:047e2000ffffff0061
:020000040000fa
:020000040005f5
:047e30007fffff00d1
:020000040000fa
:020000040005f5
:047e3800bfffff0089
:020000040000fa
:020000040005f5
:047e40007f7fff0041
:020000040000fa
:020000040005f5
:047e4800ffffff0039
:020000040000fa
:020000040005f5
:047e5000dfffff0051
:020000040000fa
:020000040005f5
:047e58000000ff0027
:020000040000fa
:020000040005f5
:047e60000000ff001f
:020000040000fa
:020000040005f5
:047e68000000ff0017
:020000040000fa
:020000040005f5
:047e70000000ff000f
:020000040000fa
:020000040005f5
:047e7800ffffff0009
:020000040000fa
:020000040005f5
:047e8000fffcff0004
:020000040000fa
:020000040005f5
:047e8800ffffff00f9
:020000040000fa
:020000040005f5
:047ff800ffffff0088
:020000040000fa
:020000040100f9
:04300000ffffff00cf
:00000001FF
